{
    "contractName": "BMCPeriphery",
    "abi": [
        {
            "anonymous": false,
            "inputs": [
                {
                    "indexed": false,
                    "internalType": "string",
                    "name": "_svc",
                    "type": "string"
                },
                {
                    "indexed": false,
                    "internalType": "int256",
                    "name": "_sn",
                    "type": "int256"
                },
                {
                    "indexed": false,
                    "internalType": "uint256",
                    "name": "_code",
                    "type": "uint256"
                },
                {
                    "indexed": false,
                    "internalType": "string",
                    "name": "_errMsg",
                    "type": "string"
                },
                {
                    "indexed": false,
                    "internalType": "uint256",
                    "name": "_svcErrCode",
                    "type": "uint256"
                },
                {
                    "indexed": false,
                    "internalType": "string",
                    "name": "_svcErrMsg",
                    "type": "string"
                }
            ],
            "name": "ErrorOnBTPError",
            "type": "event"
        },
        {
            "anonymous": false,
            "inputs": [
                {
                    "indexed": false,
                    "internalType": "uint8",
                    "name": "version",
                    "type": "uint8"
                }
            ],
            "name": "Initialized",
            "type": "event"
        },
        {
            "anonymous": false,
            "inputs": [
                {
                    "indexed": false,
                    "internalType": "string",
                    "name": "_next",
                    "type": "string"
                },
                {
                    "indexed": false,
                    "internalType": "uint256",
                    "name": "_seq",
                    "type": "uint256"
                },
                {
                    "indexed": false,
                    "internalType": "bytes",
                    "name": "_msg",
                    "type": "bytes"
                }
            ],
            "name": "Message",
            "type": "event"
        },
        {
            "inputs": [
                {
                    "internalType": "string",
                    "name": "_network",
                    "type": "string"
                },
                {
                    "internalType": "address",
                    "name": "_bmcManagementAddr",
                    "type": "address"
                }
            ],
            "name": "initialize",
            "outputs": [],
            "stateMutability": "nonpayable",
            "type": "function"
        },
        {
            "inputs": [],
            "name": "getBmcBtpAddress",
            "outputs": [
                {
                    "internalType": "string",
                    "name": "",
                    "type": "string"
                }
            ],
            "stateMutability": "view",
            "type": "function"
        },
        {
            "inputs": [
                {
                    "internalType": "string",
                    "name": "_prev",
                    "type": "string"
                },
                {
                    "internalType": "bytes",
                    "name": "_msg",
                    "type": "bytes"
                }
            ],
            "name": "handleRelayMessage",
            "outputs": [],
            "stateMutability": "nonpayable",
            "type": "function"
        },
        {
            "inputs": [
                {
                    "internalType": "bytes",
                    "name": "_rlp",
                    "type": "bytes"
                }
            ],
            "name": "tryDecodeBTPMessage",
            "outputs": [
                {
                    "components": [
                        {
                            "internalType": "string",
                            "name": "src",
                            "type": "string"
                        },
                        {
                            "internalType": "string",
                            "name": "dst",
                            "type": "string"
                        },
                        {
                            "internalType": "string",
                            "name": "svc",
                            "type": "string"
                        },
                        {
                            "internalType": "int256",
                            "name": "sn",
                            "type": "int256"
                        },
                        {
                            "internalType": "bytes",
                            "name": "message",
                            "type": "bytes"
                        }
                    ],
                    "internalType": "struct Types.BMCMessage",
                    "name": "",
                    "type": "tuple"
                }
            ],
            "stateMutability": "pure",
            "type": "function"
        },
        {
            "inputs": [
                {
                    "internalType": "bytes",
                    "name": "_msg",
                    "type": "bytes"
                }
            ],
            "name": "tryDecodeBMCService",
            "outputs": [
                {
                    "components": [
                        {
                            "internalType": "string",
                            "name": "serviceType",
                            "type": "string"
                        },
                        {
                            "internalType": "bytes",
                            "name": "payload",
                            "type": "bytes"
                        }
                    ],
                    "internalType": "struct Types.BMCService",
                    "name": "",
                    "type": "tuple"
                }
            ],
            "stateMutability": "pure",
            "type": "function"
        },
        {
            "inputs": [
                {
                    "internalType": "bytes",
                    "name": "_msg",
                    "type": "bytes"
                }
            ],
            "name": "tryDecodeGatherFeeMessage",
            "outputs": [
                {
                    "components": [
                        {
                            "internalType": "string",
                            "name": "fa",
                            "type": "string"
                        },
                        {
                            "internalType": "string[]",
                            "name": "svcs",
                            "type": "string[]"
                        }
                    ],
                    "internalType": "struct Types.GatherFeeMessage",
                    "name": "",
                    "type": "tuple"
                }
            ],
            "stateMutability": "pure",
            "type": "function"
        },
        {
            "inputs": [
                {
                    "internalType": "string",
                    "name": "_to",
                    "type": "string"
                },
                {
                    "internalType": "string",
                    "name": "_svc",
                    "type": "string"
                },
                {
                    "internalType": "uint256",
                    "name": "_sn",
                    "type": "uint256"
                },
                {
                    "internalType": "bytes",
                    "name": "_msg",
                    "type": "bytes"
                }
            ],
            "name": "sendMessage",
            "outputs": [],
            "stateMutability": "nonpayable",
            "type": "function"
        },
        {
            "inputs": [
                {
                    "internalType": "string",
                    "name": "_link",
                    "type": "string"
                }
            ],
            "name": "getStatus",
            "outputs": [
                {
                    "components": [
                        {
                            "internalType": "uint256",
                            "name": "rxSeq",
                            "type": "uint256"
                        },
                        {
                            "internalType": "uint256",
                            "name": "txSeq",
                            "type": "uint256"
                        },
                        {
                            "internalType": "uint256",
                            "name": "rxHeight",
                            "type": "uint256"
                        },
                        {
                            "internalType": "uint256",
                            "name": "currentHeight",
                            "type": "uint256"
                        }
                    ],
                    "internalType": "struct Types.LinkStats",
                    "name": "_linkStats",
                    "type": "tuple"
                }
            ],
            "stateMutability": "view",
            "type": "function"
        }
    ],
    "bytecode": "0x608060405234801561001057600080fd5b50615f0680620000216000396000f3fe608060405234801561001057600080fd5b50600436106100785760003560e01c806321b1e9bb1461007d5780632294c4881461009257806322b05ed2146100bb57806323c31a43146101015780632a4011e9146101215780637ab4339d146101365780639624379f14610149578063bf6c1d9a14610169575b600080fd5b61009061008b366004614a2e565b61017c565b005b6100a56100a0366004614996565b6108ef565b6040516100b291906152f1565b60405180910390f35b6100ce6100c9366004614a07565b61093f565b6040516100b291908151815260208083015190820152604080830151908201526060918201519181019190915260800190565b61011461010f3660046149d5565b610a78565b6040516100b29190615272565b610129610a91565b6040516100b29190615068565b610090610144366004614a96565b610b24565b61015c610157366004614996565b610cbf565b6040516100b2919061532a565b610090610177366004614b45565b610d06565b6101868484610f65565b60025460405163535d362b60e01b81526000916001600160a01b03169063535d362b906101b9908890889060040161507b565b60206040518083038186803b1580156101d157600080fd5b505afa1580156101e5573d6000803e3d6000fd5b505050506040513d601f19601f820116820180604052508101906102099190614ed1565b60025460405163b589082d60e01b81529192506000916001600160a01b039091169063b589082d90610241908990899060040161507b565b60206040518083038186803b15801561025957600080fd5b505afa15801561026d573d6000803e3d6000fd5b505050506040513d601f19601f820116820180604052508101906102919190614ed1565b604080516020601f8701819004810282018101909252858152919250839183916000916102d891899089908190840183828082843760009201919091525061109392505050565b90506102e261460d565b6102ea61463c565b60005b835181101561077f578484828151811061031757634e487b7160e01b600052603260045260246000fd5b602002602001015160400151101561032e5761076d565b83818151811061034e57634e487b7160e01b600052603260045260246000fd5b602002602001015160400151945060005b84828151811061037f57634e487b7160e01b600052603260045260246000fd5b6020026020010151602001515181101561076b578482815181106103b357634e487b7160e01b600052603260045260246000fd5b60200260200101516020015181815181106103de57634e487b7160e01b600052603260045260246000fd5b60200260200101519250610480600180546103f890615b46565b80601f016020809104026020016040519081016040528092919081815260200182805461042490615b46565b80156104715780601f1061044657610100808354040283529160200191610471565b820191906000526020600020905b81548152906001019060200180831161045457829003601f168201915b50508751939250506112379050565b6104c45760405162461bcd60e51b815260206004820152601060248201526f496e76616c6964204e65787420424d4360801b60448201526064015b60405180910390fd5b866104ce81615ba7565b97505086836020015110156104ef57866104e781615b2f565b975050610759565b868360200151111561053957604080518082018252601081526f24b73b30b634b229b2b8a73ab6b132b960811b6020820152905162461bcd60e51b81526104bb9190600401615068565b60408084015190516323c31a4360e01b815230916323c31a43916105609190600401615068565b60006040518083038186803b15801561057857600080fd5b505afa9250505080156105ad57506040513d6000823e601f3d908101601f191682016040526105aa9190810190614bd2565b60015b6105b657610759565b9350610652600180546105c890615b46565b80601f01602080910402602001604051908101604052809291908181526020018280546105f490615b46565b80156106415780601f1061061657610100808354040283529160200191610641565b820191906000526020600020905b81548152906001019060200180831161062457829003601f168201915b505050602088015192915050611237565b15610667576106628d8d8661129e565b610759565b60006106768560200151611e6c565b50600254604051635f3fc33b60e11b81529192506001600160a01b03169063be7f8676906106a8908490600401615068565b60006040518083038186803b1580156106c057600080fd5b505afa9250505080156106f557506040513d6000823e601f3d908101601f191682016040526106f29190810190614ae5565b60015b61074657610701615e10565b806308c379a014156107355750610716615e27565b806107215750610737565b61072f8f8f88600a85611ef2565b50610741565b505b3d6000803e3d6000fd5b610757565b61075482876040015161203a565b50505b505b8061076381615ba7565b91505061035f565b505b8061077781615ba7565b9150506102ed565b506002546001600160a01b0316637c38d5948c8c61079d8b8a615ac9565b6040518463ffffffff1660e01b81526004016107bb93929190615101565b600060405180830381600087803b1580156107d557600080fd5b505af11580156107e9573d6000803e3d6000fd5b50506002546001600160a01b0316915063754cd745905033600061080d8b8a615ac9565b6040516001600160e01b031960e086901b1681526001600160a01b03909316600484015260248301919091526044820152606401600060405180830381600087803b15801561085b57600080fd5b505af115801561086f573d6000803e3d6000fd5b50506002546001600160a01b03169150632f623dd190508c8c6108928a89615ac9565b6040518463ffffffff1660e01b81526004016108b093929190615101565b600060405180830381600087803b1580156108ca57600080fd5b505af11580156108de573d6000803e3d6000fd5b505050505050505050505050505050565b6108f761465d565b61093683838080601f01602080910402602001604051908101604052809392919081815260200183838082843760009201919091525061215c92505050565b90505b92915050565b61096a6040518060800160405280600081526020016000815260200160008152602001600081525090565b600254604051633a3b229560e11b81526000916001600160a01b031690637476452a9061099d908790879060040161507b565b60006040518083038186803b1580156109b557600080fd5b505afa1580156109c9573d6000803e3d6000fd5b505050506040513d6000823e601f3d908101601f191682016040526109f19190810190614dc2565b61018081015160408051808201909152600d81526c4e6f744578697374734c696e6b60981b60208201529192501515600114610a405760405162461bcd60e51b81526004016104bb9190615068565b506040518060800160405280826040015181526020018260600151815260200182610140015181526020014381525091505092915050565b610a8061460d565b610a89826121d5565b90505b919050565b606060018054610aa090615b46565b80601f0160208091040260200160405190810160405280929190818152602001828054610acc90615b46565b8015610b195780601f10610aee57610100808354040283529160200191610b19565b820191906000526020600020905b815481529060010190602001808311610afc57829003601f168201915b505050505090505b90565b600054610100900460ff1615808015610b445750600054600160ff909116105b80610b5e5750303b158015610b5e575060005460ff166001145b610bc15760405162461bcd60e51b815260206004820152602e60248201527f496e697469616c697a61626c653a20636f6e747261637420697320616c72656160448201526d191e481a5b9a5d1a585b1a5e995960921b60648201526084016104bb565b6000805460ff191660011790558015610be4576000805461ff0019166101001790555b610c44610bf0306122cd565b610c3e604051806040016040528060018152602001602f60f81b815250610c3e87604051806040016040528060068152602001656274703a2f2f60d01b8152506122d890919063ffffffff16565b906122d8565b8051610c5891600191602090910190614677565b50600280546001600160a01b0319166001600160a01b0384161790558015610cba576000805461ff0019169055604051600181527f7f26b83ff96e1f2b6a682f133852f6798a09c465da95921460cefb38474024989060200160405180910390a15b505050565b610cc761465d565b61093683838080601f01602080910402602001604051908101604052809392919081815260200183838082843760009201919091525061230492505050565b6002546001600160a01b0316331480610da5575060025460405163cd881dbd60e01b815233916001600160a01b03169063cd881dbd90610d4a908790600401615068565b60206040518083038186803b158015610d6257600080fd5b505afa158015610d76573d6000803e3d6000fd5b505050506040513d601f19601f82011682018060405250810190610d9a9190614948565b6001600160a01b0316145b6040518060400160405280600c81526020016b155b985d5d1a1bdc9a5e995960a21b81525090610de85760405162461bcd60e51b81526004016104bb9190615068565b50604080518082018252600981526824b73b30b634b229b760b91b6020909101526002549051635f3fc33b60e11b815260009182916001600160a01b039091169063be7f867690610e3d908990600401615068565b60006040518083038186803b158015610e5557600080fd5b505afa158015610e69573d6000803e3d6000fd5b505050506040513d6000823e601f3d908101601f19168201604052610e919190810190614ae5565b915091506000610f506040518060a0016040528060018054610eb290615b46565b80601f0160208091040260200160405190810160405280929190818152602001828054610ede90615b46565b8015610f2b5780601f10610f0057610100808354040283529160200191610f2b565b820191906000526020600020905b815481529060010190602001808311610f0e57829003601f168201915b5050505050815260200184815260200188815260200187815260200186815250612451565b9050610f5c838261203a565b50505050505050565b60025460405163401a2c5760e01b81526000916001600160a01b03169063401a2c5790610f98908690869060040161507b565b60006040518083038186803b158015610fb057600080fd5b505afa158015610fc4573d6000803e3d6000fd5b505050506040513d6000823e601f3d908101601f19168201604052610fec9190810190614964565b905060005b81518110156110545781818151811061101a57634e487b7160e01b600052603260045260246000fd5b60200260200101516001600160a01b0316336001600160a01b0316141561104257505061108f565b8061104c81615ba7565b915050610ff1565b50604080518082018252600c81526b155b985d5d1a1bdc9a5e995960a21b6020820152905162461bcd60e51b81526104bb9190600401615068565b5050565b606060006110a86110a3846124f0565b612515565b90506110db816000815181106110ce57634e487b7160e01b600052603260045260246000fd5b602002602001015161266e565b5115611231576111128160008151811061110557634e487b7160e01b600052603260045260246000fd5b6020026020010151612515565b516001600160401b0381111561113857634e487b7160e01b600052604160045260246000fd5b60405190808252806020026020018201604052801561117157816020015b61115e6146fb565b8152602001906001900390816111565790505b50915060005b61119b8260008151811061110557634e487b7160e01b600052603260045260246000fd5b5181101561122f576111f16111ec6111cd8460008151811061110557634e487b7160e01b600052603260045260246000fd5b83815181106110ce57634e487b7160e01b600052603260045260246000fd5b612755565b83828151811061121157634e487b7160e01b600052603260045260246000fd5b6020026020010181905250808061122790615ba7565b915050611177565b505b50919050565b60008160405160200161124a919061500a565b6040516020818303038152906040528051906020012083604051602001611271919061500a565b60405160208183030381529060405280519060200120141561129557506001610939565b50600092915050565b6040805180820182526003815262626d6360e81b6020820152908201516000916112c89190611237565b15611ac2576112d561465d565b6080830151604051630452989160e31b81523091632294c488916112fc9190600401615068565b60006040518083038186803b15801561131457600080fd5b505afa92505050801561134957506040513d6000823e601f3d908101601f191682016040526113469190810190614caf565b60015b6113865761137f858585600a6040518060400160405280600c81526020016b50617273654661696c75726560a01b815250611ef2565b5050610cba565b905060408051808201909152600c81526b466565476174686572696e6760a01b602082015281516113b691611237565b156115ea576113c361465d565b6020820151604051639624379f60e01b81523091639624379f916113ea9190600401615068565b60006040518083038186803b15801561140257600080fd5b505afa92505050801561143757506040513d6000823e601f3d908101601f191682016040526114349190810190614d40565b60015b6114755761146d868686600a6040518060400160405280600c81526020016b50617273654661696c75726560a01b815250611ef2565b505050610cba565b905060005b8160200151518110156115e357600254602083015180516001600160a01b039092169163cd881dbd9190849081106114c257634e487b7160e01b600052603260045260246000fd5b60200260200101516040518263ffffffff1660e01b81526004016114e69190615068565b60206040518083038186803b1580156114fe57600080fd5b505afa158015611512573d6000803e3d6000fd5b505050506040513d601f19601f820116820180604052508101906115369190614948565b93506001600160a01b038416156115d157836001600160a01b0316633842888c83600001518460200151848151811061157f57634e487b7160e01b600052603260045260246000fd5b60200260200101516040518363ffffffff1660e01b81526004016115a492919061517d565b600060405180830381600087803b1580156115be57600080fd5b505af19250505080156115cf575060015b505b806115db81615ba7565b91505061147a565b5050611abc565b6040805180820190915260048152634c696e6b60e01b6020820152815161161091611237565b156117fe576000611624826020015161294a565b600254604051633a3b229560e11b81529192506000916001600160a01b0390911690637476452a9061165c908a908a9060040161507b565b60006040518083038186803b15801561167457600080fd5b505afa158015611688573d6000803e3d6000fd5b505050506040513d6000823e601f3d908101601f191682016040526116b09190810190614dc2565b90506000816101800151156117f65760005b82602001515181101561172d5761170d836020015182815181106116f657634e487b7160e01b600052603260045260246000fd5b60200260200101518561123790919063ffffffff16565b1561171b576001915061172d565b8061172581615ba7565b9150506116c2565b50806117f657604080516001808252818301909252600091816020015b606081526020019060019003908161174a579050509050838160008151811061178357634e487b7160e01b600052603260045260246000fd5b602090810291909101015260025460405163fc21d1c360e01b81526001600160a01b039091169063fc21d1c3906117c2908c908c90869060040161508f565b600060405180830381600087803b1580156117dc57600080fd5b505af11580156117f0573d6000803e3d6000fd5b50505050505b505050611abc565b604080518082019091526006815265556e6c696e6b60d01b6020820152815161182691611237565b1561199f57600061183a826020015161294a565b600254604051633a3b229560e11b81529192506000916001600160a01b0390911690637476452a90611872908a908a9060040161507b565b60006040518083038186803b15801561188a57600080fd5b505afa15801561189e573d6000803e3d6000fd5b505050506040513d6000823e601f3d908101601f191682016040526118c69190810190614dc2565b9050806101800151156115e35760005b8160200151518110156117f6576119218260200151828151811061190a57634e487b7160e01b600052603260045260246000fd5b60200260200101518461123790919063ffffffff16565b1561198d57600254604051632dac252160e21b81526001600160a01b039091169063b6b094849061195a908b908b908690600401615101565b600060405180830381600087803b15801561197457600080fd5b505af1158015611988573d6000803e3d6000fd5b505050505b8061199781615ba7565b9150506118d6565b604080518082019091526004815263125b9a5d60e21b602082015281516119c591611237565b15611a465760006119d98260200151612987565b60025460405163fc21d1c360e01b81529192506001600160a01b03169063fc21d1c390611a0e9089908990869060040161508f565b600060405180830381600087803b158015611a2857600080fd5b505af1158015611a3c573d6000803e3d6000fd5b5050505050611abc565b6040805180820190915260048152635361636b60e01b60208201528151611a6c91611237565b15611a7657611abc565b60408051808201825260188152772737ba22bc34b9ba39a4b73a32b93730b62430b7323632b960411b6020820152905162461bcd60e51b81526104bb9190600401615068565b50611e66565b600254604080840151905163cd881dbd60e01b81526001600160a01b039092169163cd881dbd91611af591600401615068565b60206040518083038186803b158015611b0d57600080fd5b505afa158015611b21573d6000803e3d6000fd5b505050506040513d601f19601f82011682018060405250810190611b459190614948565b90506001600160a01b038116611b8d57611b87848484600a6040518060400160405280600c81526020016b09cdee88af0d2e6e8e684a6960a31b815250611ef2565b50610cba565b6000826060015112611cca576000611ba88360000151611e6c565b509050816001600160a01b031663b70eeb8d828560400151866060015187608001516040518563ffffffff1660e01b8152600401611be994939291906151a2565b600060405180830381600087803b158015611c0357600080fd5b505af1925050508015611c14575060015b611abc57611c20615e10565b806308c379a01415611c545750611c35615e27565b80611c405750611c56565b611c4e868686602885611ef2565b50611cc5565b505b3d808015611c80576040519150601f19603f3d011682016040523d82523d6000602084013e611c85565b606091505b50611cc3868686602860405180604001604052806017815260200176556e6b6e6f776e48616e646c654254504d65737361676560481b815250611ef2565b505b611abc565b6000611cd98360800151612a93565b905060006060836001600160a01b0316630a823dea866000015187604001518860600151600019611d0a9190615588565b875160208901516040516001600160e01b031960e088901b168152611d369594939291906004016151ec565b600060405180830381600087803b158015611d5057600080fd5b505af1925050508015611d61575060015b611e0057611d6d615e10565b806308c379a01415611d985750611d82615e27565b80611d8d5750611d9a565b602892509050611e00565b505b3d808015611dc4576040519150601f19603f3d011682016040523d82523d6000602084013e611dc9565b606091505b5060009250604051806040016040528060158152602001742ab735b737bbb72430b7323632a12a2822b93937b960591b8152509150505b805115610f5c577f45eab163faa71c8b113fcbc0dcc77bd39e7e3365be446895b5169bd97fc5522a85604001518660600151600019611e3f9190615588565b85516020870151604051611e5a949392919088908890615125565b60405180910390a15050505b50505050565b6060806000611e9484604051806040016040528060018152602001602f60f81b815250612ae7565b905080600281518110611eb757634e487b7160e01b600052603260045260246000fd5b602002602001015181600381518110611ee057634e487b7160e01b600052603260045260246000fd5b60200260200101519250925050915091565b600083606001511315612033576000611fee6040518060a0016040528060018054611f1c90615b46565b80601f0160208091040260200160405190810160405280929190818152602001828054611f4890615b46565b8015611f955780601f10611f6a57610100808354040283529160200191611f95565b820191906000526020600020905b815481529060010190602001808311611f7857829003601f168201915b5050505050815260200186600001518152602001866040015181526020018660600151600019611fc59190615588565b8152602001611fe7604051806040016040528088815260200187815250612d20565b9052612451565b905061203186868080601f01602080910402602001604051908101604052809392919081815260200183838082843760009201919091525085925061203a915050565b505b5050505050565b60025460405163a98978cb60e01b81526001600160a01b039091169063a98978cb9061206a908590600401615068565b600060405180830381600087803b15801561208457600080fd5b505af1158015612098573d6000803e3d6000fd5b5050600254604051630502ead760e11b81527f37be353f216cf7e33639101fd610c542e6a0c0109173fa1c1d8b04d34edb7c1b93508592506001600160a01b0390911690630a05d5ae906120f0908490600401615068565b60206040518083038186803b15801561210857600080fd5b505afa15801561211c573d6000803e3d6000fd5b505050506040513d601f19601f820116820180604052508101906121409190614ed1565b836040516121509392919061523d565b60405180910390a15050565b61216461465d565b60006121726110a3846124f0565b905060405180604001604052806121a3836000815181106110ce57634e487b7160e01b600052603260045260246000fd5b81526020016121cc836001815181106110ce57634e487b7160e01b600052603260045260246000fd5b90529392505050565b6121dd61460d565b60006121eb6110a3846124f0565b90506040518060a0016040528061221c836000815181106110ce57634e487b7160e01b600052603260045260246000fd5b8152602001612245836001815181106110ce57634e487b7160e01b600052603260045260246000fd5b815260200161226e836002815181106110ce57634e487b7160e01b600052603260045260246000fd5b81526020016122a48360038151811061229757634e487b7160e01b600052603260045260246000fd5b6020026020010151612d4f565b81526020016121cc836004815181106110ce57634e487b7160e01b600052603260045260246000fd5b6060610a8982612dd0565b606082826040516020016122ed929190614f70565b604051602081830303815290604052905092915050565b61230c61465d565b600061231a6110a3846124f0565b905060006123428260018151811061110557634e487b7160e01b600052603260045260246000fd5b9050600081516001600160401b0381111561236d57634e487b7160e01b600052604160045260246000fd5b6040519080825280602002602001820160405280156123a057816020015b606081526020019060019003908161238b5790505b50905060005b8251811015612410576123d28382815181106110ce57634e487b7160e01b600052603260045260246000fd5b8282815181106123f257634e487b7160e01b600052603260045260246000fd5b6020026020010181905250808061240890615ba7565b9150506123a6565b506040518060400160405280612440856000815181106110ce57634e487b7160e01b600052603260045260246000fd5b815260200191909152949350505050565b606060006124628360000151612fdd565b61246f8460200151612fdd565b61247c8560400151612fdd565b6124898660600151612fe8565b6124968760800151612ff6565b6040516020016124aa959493929190614f9f565b60405160208183030381529060405290506124c781516000613054565b816040516020016124d9929190614f70565b604051602081830303815290604052915050919050565b6124f861471c565b506040805180820190915281518152602082810190820152919050565b60606125208261310b565b61255d5760405162461bcd60e51b815260206004820152600e60248201526d135d5cdd0818994818481b1a5cdd60921b60448201526064016104bb565b600061256883613145565b90506000816001600160401b0381111561259257634e487b7160e01b600052604160045260246000fd5b6040519080825280602002602001820160405280156125cb57816020015b6125b861471c565b8152602001906001900390816125b05790505b50905060006125dd85602001516131c8565b85602001516125ec9190615401565b90506000805b84811015612663576126038361324d565b915060405180604001604052808381526020018481525084828151811061263a57634e487b7160e01b600052603260045260246000fd5b602090810291909101015261264f8284615401565b92508061265b81615ba7565b9150506125f2565b509195945050505050565b80516060906126b05760405162461bcd60e51b815260206004820152600e60248201526d092dcecc2d8d2c840d8cadccee8d60931b60448201526064016104bb565b60006126bf83602001516131c8565b905060008184600001516126d39190615ac9565b90506000816001600160401b038111156126fd57634e487b7160e01b600052604160045260246000fd5b6040519080825280601f01601f191660200182016040528015612727576020820181803683370190505b509050600081602001905061274c8487602001516127459190615401565b82856132f6565b50949350505050565b61275d6146fb565b600061276b6110a3846124f0565b9050600061279e6110a3612799846001815181106110ce57634e487b7160e01b600052603260045260246000fd5b6124f0565b516001600160401b038111156127c457634e487b7160e01b600052604160045260246000fd5b6040519080825280602002602001820160405280156127fd57816020015b6127ea61463c565b8152602001906001900390816127e25790505b50905060005b61282d6110a3612799856001815181106110ce57634e487b7160e01b600052603260045260246000fd5b518110156128d4576128966128916128656110a3612799876001815181106110ce57634e487b7160e01b600052603260045260246000fd5b838151811061288457634e487b7160e01b600052603260045260246000fd5b6020026020010151613375565b6133fc565b8282815181106128b657634e487b7160e01b600052603260045260246000fd5b602002602001018190525080806128cc90615ba7565b915050612803565b5060405180606001604052806129118460008151811061290457634e487b7160e01b600052603260045260246000fd5b6020026020010151613495565b81526020018281526020016129408460028151811061290457634e487b7160e01b600052603260045260246000fd5b9052949350505050565b6060600061295a6110a3846124f0565b9050612980816000815181106110ce57634e487b7160e01b600052603260045260246000fd5b9392505050565b606060006129976110a3846124f0565b905060006129bf8260008151811061110557634e487b7160e01b600052603260045260246000fd5b905080516001600160401b038111156129e857634e487b7160e01b600052604160045260246000fd5b604051908082528060200260200182016040528015612a1b57816020015b6060815260200190600190039081612a065790505b50925060005b8151811015612a8b57612a4d8282815181106110ce57634e487b7160e01b600052603260045260246000fd5b848281518110612a6d57634e487b7160e01b600052603260045260246000fd5b60200260200101819052508080612a8390615ba7565b915050612a21565b505050919050565b6040805180820190915260008152606060208201526000612ab66110a3846124f0565b905060405180604001604052806121a38360008151811061290457634e487b7160e01b600052603260045260246000fd5b606082600060015b60018351612afd9190615ac9565b821015612b44576000612b11878785613547565b9050806000191415612b235750612b44565b81612b2d81615ba7565b9250612b3c9050816001615401565b925050612aef565b806001600160401b03811115612b6a57634e487b7160e01b600052604160045260246000fd5b604051908082528060200260200182016040528015612b9d57816020015b6060815260200190600190039081612b885790505b50935060009150600090505b60018351612bb79190615ac9565b821015612d17576000612bcb878785613547565b9050806000191415612bdb575082515b6000612be78483615ac9565b6001600160401b03811115612c0c57634e487b7160e01b600052604160045260246000fd5b6040519080825280601f01601f191660200182016040528015612c36576020820181803683370190505b509050806000855b84811015612cc957878181518110612c6657634e487b7160e01b600052603260045260246000fd5b01602001516001600160f81b0319168383612c8081615ba7565b945081518110612ca057634e487b7160e01b600052603260045260246000fd5b60200101906001600160f81b031916908160001a90535080612cc181615ba7565b915050612c3e565b50612cd5846001615401565b9550818886612ce381615ba7565b975081518110612d0357634e487b7160e01b600052603260045260246000fd5b602002602001018190525050505050612ba9565b50505092915050565b60606000612d31836000015161360d565b612d3e8460200151612fdd565b6040516020016124aa929190614f70565b6000612d5a8261266e565b600081518110612d7a57634e487b7160e01b600052603260045260246000fd5b0160200151600160ff1b9081161415612dc757612d968261266e565b51612da290600861560b565b612dad9060026154ba565b612db683613495565b612dc091906157ed565b9050610a8c565b610a8982613495565b604080516028808252606082810190935283831b916000916020820181803683370190505090506000806000806000806000612e0b8b61368c565b905060005b6014811015612fac57612e24816013615ac9565b612e2f90600861560b565b612e3a9060026154ba565b612e489060608c901c61543e565b9750612e55601089615452565b9650612e6287601061562a565b612e6c9089615ae0565b955081612e7a82600261560b565b60288110612e9857634e487b7160e01b600052603260045260246000fd5b6020020151945081612eab82600261560b565b612eb6906001615401565b60288110612ed457634e487b7160e01b600052603260045260246000fd5b60200201519350612ee58786613871565b9250612ef18388615419565b60f81b89612f0083600261560b565b81518110612f1e57634e487b7160e01b600052603260045260246000fd5b60200101906001600160f81b031916908160001a905350612f3f8685613871565b9250612f4b8387615419565b60f81b89612f5a83600261560b565b612f65906001615401565b81518110612f8357634e487b7160e01b600052603260045260246000fd5b60200101906001600160f81b031916908160001a90535080612fa481615ba7565b915050612e10565b5087604051602001612fbe9190615026565b6040516020818303038152906040529950505050505050505050919050565b6060610a8982612ff6565b6060610a89612ff68361389e565b60608082516001148015613033575060808360008151811061302857634e487b7160e01b600052603260045260246000fd5b016020015160f81c11155b1561303f575081610a89565b61093661304e84516080613e01565b84613fef565b6060603783118015613064575081155b156130ab5760006130748461406c565b905061308281516001613054565b81604051602001613094929190614f70565b604051602081830303815290604052915050610939565b603783111580156130ba575081155b156130f0576130ca8360c0615401565b6040516020016130da9190615050565b6040516020818303038152906040529050610939565b6130fb8360f7615401565b6040516020016122ed9190615050565b805160009061311c57506000610a8c565b6020820151805160001a9060c082101561313b57600092505050610a8c565b5060019392505050565b805160009061315657506000610a8c565b60008061316684602001516131c8565b84602001516131759190615401565b905060008460000151856020015161318d9190615401565b90505b808210156131bf576131a18261324d565b6131ab9083615401565b9150826131b781615ba7565b935050613190565b50909392505050565b8051600090811a60808110156131e2576000915050610a8c565b60b88110806131fd575060c081108015906131fd575060f881105b1561320c576001915050610a8c565b60c081101561324157613221600160b8615ae0565b61322e9060ff1682615ac9565b613239906001615401565b915050610a8c565b613221600160f8615ae0565b80516000908190811a608081101561326857600191506132ef565b60b881101561328e5761327c608082615ac9565b613287906001615401565b91506132ef565b60c08110156132bb5760b78103600185019450806020036101000a855104600182018101935050506132ef565b60f88110156132cf5761327c60c082615ac9565b60f78103600185019450806020036101000a855104600182018101935050505b5092915050565b8061330057610cba565b602081106133385782518252613317602084615401565b9250613324602083615401565b9150613331602082615ac9565b9050613300565b8015610cba576000600161334d836020615ac9565b613359906101006154ba565b6133639190615ac9565b84518451821691191617835250505050565b6060600082600001516001600160401b038111156133a357634e487b7160e01b600052604160045260246000fd5b6040519080825280601f01601f1916602001820160405280156133cd576020820181803683370190505b5090508051600014156133e1579050610a8c565b60008160200190506132ef84602001518286600001516132f6565b61340461463c565b60006134126110a3846124f0565b90506040518060600160405280613443836000815181106110ce57634e487b7160e01b600052603260045260246000fd5b815260200161346c8360018151811061290457634e487b7160e01b600052603260045260246000fd5b81526020016121cc836002815181106110ce57634e487b7160e01b600052603260045260246000fd5b8051600090158015906134aa57508151602110155b6134ec5760405162461bcd60e51b815260206004820152601360248201527224b73b30b634b2103ab4b73a10373ab6b132b960691b60448201526064016104bb565b60006134fb83602001516131c8565b9050600081846000015161350f9190615ac9565b90506000808386602001516135249190615401565b905080519150602083101561274c57506020919091036101000a90049392505050565b81516000908490849060011461356d57634e487b7160e01b600052600160045260246000fd5b835b82518110156135ff578160008151811061359957634e487b7160e01b600052603260045260246000fd5b602001015160f81c60f81b6001600160f81b0319168382815181106135ce57634e487b7160e01b600052603260045260246000fd5b01602001516001600160f81b03191614156135ed579250612980915050565b806135f781615ba7565b91505061356f565b506000199695505050505050565b60606000600861361c84614474565b613626919061543e565b613631906001615401565b9050600061363e8461406c565b9050600081518361364f9190615ac9565b111561367b57604051613669906000908390602001614f3f565b60405160208183030381529060405290505b61368481612ff6565b949350505050565b613694614736565b606082901b60006136a482614497565b6040516020016136b4919061500a565b60405160208183030381529060405280519060200120905060008060008060005b601481101561386557601087826014811061370057634e487b7160e01b600052603260045260246000fd5b61370c9291901a615bd6565b935060108488836014811061373157634e487b7160e01b600052603260045260246000fd5b61373d9291901a615ae0565b6137479190615452565b9450601086826020811061376b57634e487b7160e01b600052603260045260246000fd5b6137779291901a615bd6565b915060108287836020811061379c57634e487b7160e01b600052603260045260246000fd5b6137a89291901a615ae0565b6137b29190615452565b925060098560ff161180156137ca575060078360ff16115b886137d683600261560b565b602881106137f457634e487b7160e01b600052603260045260246000fd5b91151560209092020152600960ff8516118015613814575060078260ff16115b8861382083600261560b565b61382b906001615401565b6028811061384957634e487b7160e01b600052603260045260246000fd5b911515602090920201528061385d81615ba7565b9150506136d5565b50505050505050919050565b6000600a8360ff16101561388757506030610939565b811561389557506037610939565b50605792915050565b60608160016138ad607f615d5e565b6138b791906159c0565b60000b131580156138c95750607f8213155b156138f857604051600083900b60f81b60208201526021015b6040516020818303038152906040529050610a8c565b816001613906617fff615c7b565b6139109190615775565b60010b131580156139235750617fff8213155b1561394057604051600183900b60f01b60208201526022016138e2565b81600161394f627fffff615c94565b61395991906157b0565b60020b1315801561396d5750627fffff8213155b1561398a57604051600283900b60e81b60208201526023016138e2565b81600161399a637fffffff615cae565b6139a4919061582c565b60030b131580156139b95750637fffffff8213155b156139d657604051600383900b60e01b60208201526024016138e2565b8160016139e7647fffffffff615cc9565b6139f1919061586b565b60040b13158015613a075750647fffffffff8213155b15613a2457604051600483900b60d81b60208201526025016138e2565b816001613a36657fffffffffff615ce5565b613a4091906158ac565b60050b13158015613a575750657fffffffffff8213155b15613a7457604051600583900b60d01b60208201526026016138e2565b816001613a87667fffffffffffff615d02565b613a9191906158ef565b60060b13158015613aa95750667fffffffffffff8213155b15613ac657604051600683900b60c81b60208201526027016138e2565b816001613ad960016001603f1b03615d20565b613ae39190615934565b60070b13158015613afb575060016001603f1b038213155b15613b1857604051600783900b60c01b60208201526028016138e2565b816001613b2b6001600160471b03615d3f565b613b35919061597a565b60080b13158015613b4d57506001600160471b038213155b15613b6a57604051600883900b60b81b60208201526029016138e2565b816001613b7d60016001604f1b03615d75565b613b8791906159f7565b60090b13158015613b9f575060016001604f1b038213155b15613bbc57604051600983900b60b01b6020820152602a016138e2565b816001613bcf6001600160571b03615d94565b613bd99190615a3d565b600a0b13158015613bf157506001600160571b038213155b15613c0e57604051600a83900b60a81b6020820152602b016138e2565b816001613c2160016001605f1b03615db3565b613c2b9190615a83565b600b0b13158015613c43575060016001605f1b038213155b15613c6057604051600b83900b60a01b6020820152602c016138e2565b816001613c736001600160671b03615bf8565b613c7d9190615653565b600c0b13158015613c9557506001600160671b038213155b15613cb257604051600c83900b60981b6020820152602d016138e2565b816001613cc560016001606f1b03615c1e565b613ccf91906156a3565b600d0b13158015613ce7575060016001606f1b038213155b15613d0457604051600d83900b60901b6020820152602e016138e2565b816001613d176001600160771b03615c3d565b613d2191906156e9565b600e0b13158015613d3957506001600160771b038213155b15613d5657604051600e83900b60881b6020820152602f016138e2565b816001613d6960016001607f1b03615c5c565b613d73919061572f565b600f0b13158015613d8b575060016001607f1b038213155b613dd75760405162461bcd60e51b815260206004820152601e60248201527f6f75744f66426f756e64733a205b2d325e3132382d312c20325e3132385d000060448201526064016104bb565b604051600f83900b60801b60208201526030015b6040516020818303038152906040529050919050565b6060806038841015613e795760408051600180825281830190925290602082018180368337019050509050613e368385615401565b601f1a60f81b81600081518110613e5d57634e487b7160e01b600052603260045260246000fd5b60200101906001600160f81b031916908160001a905350610936565b600060015b613e88818761543e565b15613eae5781613e9781615ba7565b9250613ea790506101008261560b565b9050613e7e565b613eb9826001615401565b6001600160401b03811115613ede57634e487b7160e01b600052604160045260246000fd5b6040519080825280601f01601f191660200182016040528015613f08576020820181803683370190505b509250613f158583615401565b613f20906037615401565b601f1a60f81b83600081518110613f4757634e487b7160e01b600052603260045260246000fd5b60200101906001600160f81b031916908160001a905350600190505b818111613fe657610100613f778284615ac9565b613f83906101006154ba565b613f8d908861543e565b613f979190615bc2565b601f1a60f81b838281518110613fbd57634e487b7160e01b600052603260045260246000fd5b60200101906001600160f81b031916908160001a90535080613fde81615ba7565b915050613f63565b50509392505050565b6060806040519050835180825260208201818101602087015b81831015614020578051835260209283019201614008565b50855184518101855292509050808201602086015b8183101561404d578051835260209283019201614035565b508651929092011591909101601f01601f191660405250905092915050565b606060ff82101561408857816040516020016138e29190615050565b60ff821080159061409a575061ffff82105b156140be576040516001600160f01b031960f084901b1660208201526022016138e2565b61ffff82108015906140d2575062ffffff82105b156140f6576040516001600160e81b031960e884901b1660208201526023016138e2565b62ffffff821080159061410c575063ffffffff82105b15614130576040516001600160e01b031960e084901b1660208201526024016138e2565b63ffffffff8210801590614148575064ffffffffff82105b1561416c576040516001600160d81b031960d884901b1660208201526025016138e2565b64ffffffffff8210801590614186575065ffffffffffff82105b156141aa576040516001600160d01b031960d084901b1660208201526026016138e2565b65ffffffffffff82108015906141c6575066ffffffffffffff82105b156141ea576040516001600160c81b031960c884901b1660208201526027016138e2565b66ffffffffffffff821080159061420757506001600160401b0382105b1561422b576040516001600160c01b031960c084901b1660208201526028016138e2565b6001600160401b03821080159061424857506001600160481b0382105b1561426c576040516001600160b81b031960b884901b1660208201526029016138e2565b6001600160481b03821080159061428957506001600160501b0382105b156142ad576040516001600160b01b031960b084901b166020820152602a016138e2565b6001600160501b0382108015906142ca57506001600160581b0382105b156142ee576040516001600160a81b031960a884901b166020820152602b016138e2565b6001600160581b03821080159061430b57506001600160601b0382105b1561432f576040516001600160a01b031960a084901b166020820152602c016138e2565b6001600160601b03821080159061434c57506001600160681b0382105b15614370576040516001600160981b0319609884901b166020820152602d016138e2565b6001600160681b03821080159061438d57506001600160701b0382105b156143b1576040516001600160901b0319609084901b166020820152602e016138e2565b6001600160701b0382108015906143ce57506001600160781b0382105b156143f2576040516001600160881b0319608884901b166020820152602f016138e2565b6001600160781b03821080159061440f57506001600160801b0382105b6144555760405162461bcd60e51b81526020600482015260176024820152766f75744f66426f756e64733a205b302c20325e3132385d60481b60448201526064016104bb565b6040516001600160801b0319608084901b166020820152603001613deb565b6000805b8215610a8957614489600182615401565b9050600183901c9250614478565b60408051602880825260608281019093526000919060208201818036833701905050905060008080805b6014811015614602576144d5816013615ac9565b6144e090600861560b565b6144eb9060026154ba565b6144f990606089901c61543e565b9350614506601085615452565b925061451383601061562a565b61451d9085615ae0565b9150600a8360ff1610614531576057614534565b60305b61453e9084615419565b60f81b8561454d83600261560b565b8151811061456b57634e487b7160e01b600052603260045260246000fd5b60200101906001600160f81b031916908160001a905350600a8260ff1610614594576057614597565b60305b6145a19083615419565b60f81b856145b083600261560b565b6145bb906001615401565b815181106145d957634e487b7160e01b600052603260045260246000fd5b60200101906001600160f81b031916908160001a905350806145fa81615ba7565b9150506144c1565b509295945050505050565b6040518060a0016040528060608152602001606081526020016060815260200160008152602001606081525090565b60405180606001604052806060815260200160008152602001606081525090565b604051806040016040528060608152602001606081525090565b82805461468390615b46565b90600052602060002090601f0160209004810192826146a557600085556146eb565b82601f106146be57805160ff19168380011785556146eb565b828001600101855582156146eb579182015b828111156146eb5782518255916020019190600101906146d0565b506146f7929150614755565b5090565b60405180606001604052806000815260200160608152602001600081525090565b604051806040016040528060008152602001600081525090565b6040518061050001604052806028906020820280368337509192915050565b5b808211156146f75760008155600101614756565b600082601f83011261477a578081fd5b81516020614787826153b7565b6040516147948282615b7b565b8381528281019150858301838502870184018810156147b1578586fd5b855b858110156147d85781516147c681615eb8565b845292840192908401906001016147b3565b5090979650505050505050565b600082601f8301126147f5578081fd5b81516020614802826153b7565b60405161480f8282615b7b565b8381528281019150858301855b858110156147d857614833898684518b01016148f2565b8452928401929084019060010161481c565b80518015158114610a8c57600080fd5b60008083601f840112614866578182fd5b5081356001600160401b0381111561487c578182fd5b60208301915083602082850101111561489457600080fd5b9250929050565b600082601f8301126148ab578081fd5b81356148b6816153da565b6040516148c38282615b7b565b8281528560208487010111156148d7578384fd5b82602086016020830137918201602001929092529392505050565b600082601f830112614902578081fd5b815161490d816153da565b60405161491a8282615b7b565b82815285602084870101111561492e578384fd5b61493f836020830160208801615b03565b95945050505050565b600060208284031215614959578081fd5b815161093681615eb8565b600060208284031215614975578081fd5b81516001600160401b0381111561498a578182fd5b6136848482850161476a565b600080602083850312156149a8578081fd5b82356001600160401b038111156149bd578182fd5b6149c985828601614855565b90969095509350505050565b6000602082840312156149e6578081fd5b81356001600160401b038111156149fb578182fd5b6136848482850161489b565b60008060208385031215614a19578182fd5b82356001600160401b038111156149bd578283fd5b60008060008060408587031215614a43578182fd5b84356001600160401b0380821115614a59578384fd5b614a6588838901614855565b90965094506020870135915080821115614a7d578384fd5b50614a8a87828801614855565b95989497509550505050565b60008060408385031215614aa8578182fd5b82356001600160401b03811115614abd578283fd5b614ac98582860161489b565b9250506020830135614ada81615eb8565b809150509250929050565b60008060408385031215614af7578182fd5b82516001600160401b0380821115614b0d578384fd5b614b19868387016148f2565b93506020850151915080821115614b2e578283fd5b50614b3b858286016148f2565b9150509250929050565b60008060008060808587031215614b5a578182fd5b84356001600160401b0380821115614b70578384fd5b614b7c8883890161489b565b95506020870135915080821115614b91578384fd5b614b9d8883890161489b565b9450604087013593506060870135915080821115614bb9578283fd5b50614bc68782880161489b565b91505092959194509250565b600060208284031215614be3578081fd5b81516001600160401b0380821115614bf9578283fd5b9083019060a08286031215614c0c578283fd5b614c1660a06153aa565b825182811115614c24578485fd5b614c30878286016148f2565b825250602083015182811115614c44578485fd5b614c50878286016148f2565b602083015250604083015182811115614c67578485fd5b614c73878286016148f2565b60408301525060608301516060820152608083015182811115614c94578485fd5b614ca0878286016148f2565b60808301525095945050505050565b600060208284031215614cc0578081fd5b81516001600160401b0380821115614cd6578283fd5b9083019060408286031215614ce9578283fd5b604051614cf7604082615b7b565b825182811115614d05578485fd5b614d11878286016148f2565b825250602083015182811115614d25578485fd5b614d31878286016148f2565b60208301525095945050505050565b600060208284031215614d51578081fd5b81516001600160401b0380821115614d67578283fd5b9083019060408286031215614d7a578283fd5b604051614d88604082615b7b565b825182811115614d96578485fd5b614da2878286016148f2565b825250602083015182811115614db6578485fd5b614d31878286016147e5565b600060208284031215614dd3578081fd5b81516001600160401b0380821115614de9578283fd5b81840191506101a0808387031215614dff578384fd5b614e08816153aa565b9050825182811115614e18578485fd5b614e248782860161476a565b825250602083015182811115614e38578485fd5b614e44878286016147e5565b60208301525060408381015190820152606080840151908201526080808401519082015260a0808401519082015260c0808401519082015260e0808401519082015261010080840151908201526101208084015190820152610140808401519082015261016080840151908201526101809150614ec2828401614845565b91810191909152949350505050565b600060208284031215614ee2578081fd5b5051919050565b60008151808452614f01816020860160208601615b03565b601f01601f19169290920160200192915050565b60008284528282602086013780602084860101526020601f19601f85011685010190509392505050565b6001600160f81b0319831681528151600090614f62816001850160208701615b03565b919091016001019392505050565b60008351614f82818460208801615b03565b835190830190614f96818360208801615b03565b01949350505050565b60008651614fb1818460208b01615b03565b865190830190614fc5818360208b01615b03565b8651910190614fd8818360208a01615b03565b8551910190614feb818360208901615b03565b8451910190614ffe818360208801615b03565b01979650505050505050565b6000825161501c818460208701615b03565b9190910192915050565b600061060f60f31b82528251615043816002850160208701615b03565b9190910160020192915050565b60f89190911b6001600160f81b031916815260010190565b6000602082526109366020830184614ee9565b600060208252613684602083018486614f15565b6000604082526150a3604083018587614f15565b602083820381850152818551808452828401915082838202850101838801865b838110156150f157601f198784030185526150df838351614ee9565b948601949250908501906001016150c3565b50909a9950505050505050505050565b600060408252615115604083018587614f15565b9050826020830152949350505050565b600060c0825261513860c0830189614ee9565b87602084015286604084015282810360608401526151568187614ee9565b905084608084015282810360a08401526151708185614ee9565b9998505050505050505050565b6000604082526151906040830185614ee9565b828103602084015261493f8185614ee9565b6000608082526151b56080830187614ee9565b82810360208401526151c78187614ee9565b905084604084015282810360608401526151e18185614ee9565b979650505050505050565b600060a082526151ff60a0830188614ee9565b82810360208401526152118188614ee9565b905085604084015284606084015282810360808401526152318185614ee9565b98975050505050505050565b6000606082526152506060830186614ee9565b84602084015282810360408401526152688185614ee9565b9695505050505050565b600060208252825160a0602084015261528e60c0840182614ee9565b90506020840151601f19808584030160408601526152ac8383614ee9565b925060408601519150808584030160608601526152c98383614ee9565b92506060860151608086015260808601519150808584030160a08601525061493f8282614ee9565b60006020825282516040602084015261530d6060840182614ee9565b90506020840151601f1984830301604085015261493f8282614ee9565b6000602080835283516040828501526153466060850182614ee9565b82860151601f19868303810160408801528151808452929350908401918385019080860285018601875b8281101561539c578487830301845261538a828751614ee9565b95880195938801939150600101615370565b509998505050505050505050565b604051610a8c8282615b7b565b60006001600160401b038211156153d0576153d0615dfa565b5060209081020190565b60006001600160401b038211156153f3576153f3615dfa565b50601f01601f191660200190565b6000821982111561541457615414615dce565b500190565b600060ff821660ff84168060ff0382111561543657615436615dce565b019392505050565b60008261544d5761544d615de4565b500490565b600060ff83168061546557615465615de4565b8060ff84160491505092915050565b80825b600180861161548657506154b1565b81870482111561549857615498615dce565b808616156154a557918102915b9490941c938002615477565b94509492505050565b600061093660001984846000826154d357506001612980565b816154e057506000612980565b81600181146154f657600281146155005761552d565b6001915050612980565b60ff84111561551157615511615dce565b6001841b91508482111561552757615527615dce565b50612980565b5060208310610133831016604e8410600b8410161715615560575081810a8381111561555b5761555b615dce565b612980565b61556d8484846001615474565b80860482111561557f5761557f615dce565b02949350505050565b60006001600160ff1b03818413828413808216868404861116156155ae576155ae615dce565b600160ff1b848712828116878305891216156155cc576155cc615dce565b8587129250878205871284841616156155e7576155e7615dce565b878505871281841616156155fd576155fd615dce565b505050929093029392505050565b600081600019048311821515161561562557615625615dce565b500290565b600060ff821660ff84168160ff048111821515161561564b5761564b615dce565b029392505050565b6000600c82810b9084900b82811280156001600160671b031983018412161561567e5761567e615dce565b6001600160671b038201831381161561569957615699615dce565b5090039392505050565b6000600d82810b9084900b828112801560016001606f1b03198301841216156156ce576156ce615dce565b60016001606f1b038201831381161561569957615699615dce565b6000600e82810b9084900b82811280156001600160771b031983018412161561571457615714615dce565b6001600160771b038201831381161561569957615699615dce565b6000600f82810b9084900b828112801560016001607f1b031983018412161561575a5761575a615dce565b60016001607f1b038201831381161561569957615699615dce565b60008160010b8360010b82811281617fff190183128115161561579a5761579a615dce565b81617fff01831381161561569957615699615dce565b60008160020b8360020b82811281627fffff19018312811516156157d6576157d6615dce565b81627fffff01831381161561569957615699615dce565b60008083128015600160ff1b85018412161561580b5761580b615dce565b6001600160ff1b038401831381161561582657615826615dce565b50500390565b60008160030b8360030b82811281637fffffff190183128115161561585357615853615dce565b81637fffffff01831381161561569957615699615dce565b60008160040b8360040b82811281647fffffffff190183128115161561589357615893615dce565b81647fffffffff01831381161561569957615699615dce565b60008160050b8360050b82811281657fffffffffff19018312811516156158d5576158d5615dce565b81657fffffffffff01831381161561569957615699615dce565b60008160060b8360060b82811281667fffffffffffff190183128115161561591957615919615dce565b81667fffffffffffff01831381161561569957615699615dce565b6000600782810b9084900b828112801560016001603f1b031983018412161561595f5761595f615dce565b60016001603f1b038201831381161561569957615699615dce565b6000600882810b9084900b82811280156001600160471b03198301841216156159a5576159a5615dce565b6001600160471b038201831381161561569957615699615dce565b600081810b83820b8281128015607f198301841216156159e2576159e2615dce565b81607f01831381161561569957615699615dce565b6000600982810b9084900b828112801560016001604f1b0319830184121615615a2257615a22615dce565b60016001604f1b038201831381161561569957615699615dce565b6000600a82810b9084900b82811280156001600160571b0319830184121615615a6857615a68615dce565b6001600160571b038201831381161561569957615699615dce565b6000600b82810b9084900b828112801560016001605f1b0319830184121615615aae57615aae615dce565b60016001605f1b038201831381161561569957615699615dce565b600082821015615adb57615adb615dce565b500390565b600060ff821660ff841680821015615afa57615afa615dce565b90039392505050565b60005b83811015615b1e578181015183820152602001615b06565b83811115611e665750506000910152565b600081615b3e57615b3e615dce565b506000190190565b600281046001821680615b5a57607f821691505b6020821081141561123157634e487b7160e01b600052602260045260246000fd5b601f8201601f191681016001600160401b0381118282101715615ba057615ba0615dfa565b6040525050565b6000600019821415615bbb57615bbb615dce565b5060010190565b600082615bd157615bd1615de4565b500690565b600060ff831680615be957615be9615de4565b8060ff84160691505092915050565b6000600c82900b6001600160671b0319811415615c1757615c17615dce565b9003919050565b6000600d82900b60016001606f1b0319811415615c1757615c17615dce565b6000600e82900b6001600160771b0319811415615c1757615c17615dce565b6000600f82900b60016001607f1b0319811415615c1757615c17615dce565b60008160010b617fff19811415615c1757615c17615dce565b60008160020b627fffff19811415615c1757615c17615dce565b60008160030b637fffffff19811415615c1757615c17615dce565b60008160040b647fffffffff19811415615c1757615c17615dce565b60008160050b657fffffffffff19811415615c1757615c17615dce565b60008160060b667fffffffffffff19811415615c1757615c17615dce565b6000600782900b60016001603f1b0319811415615c1757615c17615dce565b6000600882900b6001600160471b0319811415615c1757615c17615dce565b600081810b607f19811415615c1757615c17615dce565b6000600982900b60016001604f1b0319811415615c1757615c17615dce565b6000600a82900b6001600160571b0319811415615c1757615c17615dce565b6000600b82900b60016001605f1b0319811415615c1757615c175b634e487b7160e01b600052601160045260246000fd5b634e487b7160e01b600052601260045260246000fd5b634e487b7160e01b600052604160045260246000fd5b600060033d1115610b2157600481823e5160e01c90565b600060443d1015615e3757610b21565b6040516003193d81016004833e81513d6001600160401b038083116024840183101715615e68575050505050610b21565b8285019150815181811115615e8257505050505050610b21565b843d8701016020828501011115615e9e57505050505050610b21565b615ead60208286010187615b7b565b509094505050505090565b6001600160a01b0381168114615ecd57600080fd5b5056fea264697066735822122083cf6a3ee8e6902e3ae42e78f03c5f8011c876b8dbf894c6ce237ec4dc1a4a4964736f6c63430008020033",
    "immutableReferences": {},
    "source": "// SPDX-License-Identifier: Apache-2.0\npragma solidity >=0.8.0 <0.8.5;\npragma abicoder v2;\n\nimport \"./interfaces/IBSH.sol\";\nimport \"./interfaces/IBMCPeriphery.sol\";\nimport \"./interfaces/IBMCManagement.sol\";\nimport \"./libraries/ParseAddress.sol\";\nimport \"./libraries/RLPDecodeStruct.sol\";\nimport \"./libraries/RLPEncodeStruct.sol\";\nimport \"./libraries/String.sol\";\nimport \"./libraries/Types.sol\";\nimport \"./libraries/Utils.sol\";\n\nimport \"@openzeppelin/contracts-upgradeable/proxy/utils/Initializable.sol\";\n\ncontract BMCPeriphery is IBMCPeriphery, Initializable {\n    using String for string;\n    using ParseAddress for address;\n    using RLPDecodeStruct for bytes;\n    using RLPEncodeStruct for Types.BMCMessage;\n    using RLPEncodeStruct for Types.Response;\n    using Utils for uint256;\n    using String for uint256;\n\n    uint256 internal constant BMC_ERR = 10;\n    uint256 internal constant BSH_ERR = 40;\n    uint256 internal constant UNKNOWN_ERR = 0;\n\n    string internal constant BMCRevertUnauthorized = \"Unauthorized\";\n    string internal constant BMCRevertParseFailure = \"ParseFailure\";\n    string internal constant BMCRevertNotExistsBSH = \"NotExistsBSH\";\n    string internal constant BMCRevertNotExistsLink = \"NotExistsLink\";\n    string internal constant BMCRevertInvalidSn = \"InvalidSn\";\n    string internal constant BMCRevertInvalidSeqNumber =\n        \"InvalidSeqNumber\";\n    string internal constant BMCRevertNotExistsInternalHandler =\n        \"NotExistsInternalHandler\";\n    string internal constant BMCRevertUnknownHandleBTPError =\n        \"UnknownHandleBTPError\";\n    string internal constant BMCRevertUnknownHandleBTPMessage =\n        \"UnknownHandleBTPMessage\";\n\n    string private bmcBtpAddress; // a network address, i.e. btp://1234.pra/0xabcd\n    address private bmcManagement;\n    bytes[] internal msgs;\n\n    function initialize(string memory _network, address _bmcManagementAddr)\n        public\n        initializer\n    {\n        bmcBtpAddress = string(\"btp://\").concat(_network).concat(\"/\").concat(\n            address(this).toString()\n        );\n        bmcManagement = _bmcManagementAddr;\n    }\n\n    /**\n        @param _next next BMC's BTP address\n        @param _seq a sequence number to keep track of BTP messages\n        @param _msg message from BSH\n    */\n    event Message(string _next, uint256 _seq, bytes _msg);\n\n    // emit errors in BTP messages processing\n    event ErrorOnBTPError(\n        string _svc,\n        int256 _sn,\n        uint256 _code,\n        string _errMsg,\n        uint256 _svcErrCode,\n        string _svcErrMsg\n    );\n\n    function getBmcBtpAddress() external view override returns (string memory) {\n        return bmcBtpAddress;\n    }\n\n    function requireRegisteredRelay(string calldata _prev) internal view {\n        address[] memory relays = IBMCManagement(bmcManagement).getLinkRelays(\n            _prev\n        );\n        for (uint256 i = 0; i < relays.length; i++) {\n            if (msg.sender == relays[i]) {\n                return;\n            }\n        }\n        revert(BMCRevertUnauthorized);\n    }\n\n    /**\n       @notice Verify and decode RelayMessage, and dispatch BTP Messages to registered BSHs\n       @dev Caller must be a registered relayer.     \n       @param _prev    BTP Address of the BMC generates the message\n       @param _msg     base64 encoded string of serialized bytes of Relay Message refer RelayMessage structure\n     */\n    function handleRelayMessage(string calldata _prev, bytes calldata _msg)\n        external\n        override\n    {\n        requireRegisteredRelay(_prev);\n\n        uint256 linkRxSeq = IBMCManagement(bmcManagement).getLinkRxSeq(_prev);\n        uint256 linkRxHeight = IBMCManagement(bmcManagement).getLinkRxHeight(\n            _prev\n        );\n\n        uint256 rxSeq = linkRxSeq;\n        uint256 rxHeight = linkRxHeight;\n\n        Types.ReceiptProof[] memory rps = _msg.decodeReceiptProofs();\n\n        Types.BMCMessage memory bmcMsg;\n        Types.MessageEvent memory ev;\n\n        for (uint256 i = 0; i < rps.length; i++) {\n            if (rps[i].height < rxHeight) {\n                continue; // ignore lower block height\n            }\n            rxHeight = rps[i].height;\n            for (uint256 j = 0; j < rps[i].events.length; j++) {\n                ev = rps[i].events[j];\n                require(ev.nextBmc.compareTo(bmcBtpAddress), \"Invalid Next BMC\");\n                rxSeq++;\n                if (ev.seq < rxSeq) {\n                    rxSeq--;\n                    continue;  // ignore lower sequence number\n                } else if (ev.seq > rxSeq) {\n                    revert(BMCRevertInvalidSeqNumber);\n                }\n                try this.tryDecodeBTPMessage(ev.message) returns (\n                    Types.BMCMessage memory _decoded\n                ) {\n                    bmcMsg = _decoded;\n                } catch {\n                    continue;\n                }\n                if (bmcMsg.dst.compareTo(bmcBtpAddress)) {\n                    handleMessage(_prev, bmcMsg);\n                    continue;\n                }\n                (string memory _net, ) = bmcMsg.dst.splitBTPAddress();\n                try IBMCManagement(bmcManagement).resolveRoute(_net) returns (\n                    string memory _nextLink,\n                    string memory\n                ) {\n                    _sendMessage(_nextLink, ev.message);\n                } catch Error(string memory _error) {\n                    _sendError(_prev, bmcMsg, BMC_ERR, _error);\n                }\n            }\n        }\n\n        IBMCManagement(bmcManagement).updateLinkRxSeq(_prev, rxSeq - linkRxSeq);\n        IBMCManagement(bmcManagement).updateRelayStats(\n            msg.sender,\n            0,\n            rxSeq - linkRxSeq\n        );\n        IBMCManagement(bmcManagement).updateLinkRxHeight(\n            _prev,\n            rxHeight - linkRxHeight\n        );\n    }\n\n    function handleMessage(string calldata _prev, Types.BMCMessage memory _msg)\n        internal\n    {\n        address _bshAddr;\n        if (_msg.svc.compareTo(\"bmc\")) {\n            Types.BMCService memory _sm;\n            try this.tryDecodeBMCService(_msg.message) returns (\n                Types.BMCService memory res\n            ) {\n                _sm = res;\n            } catch {\n                _sendError(_prev, _msg, BMC_ERR, BMCRevertParseFailure);\n                return;\n            }\n\n            if (_sm.serviceType.compareTo(\"FeeGathering\")) {\n                Types.GatherFeeMessage memory _gatherFee;\n                try this.tryDecodeGatherFeeMessage(_sm.payload) returns (\n                    Types.GatherFeeMessage memory res\n                ) {\n                    _gatherFee = res;\n                } catch {\n                    _sendError(_prev, _msg, BMC_ERR, BMCRevertParseFailure);\n                    return;\n                }\n\n                for (uint256 i = 0; i < _gatherFee.svcs.length; i++) {\n                    _bshAddr = IBMCManagement(bmcManagement)\n                        .getBshServiceByName(_gatherFee.svcs[i]);\n                    //  If 'svc' not found, ignore\n                    if (_bshAddr != address(0)) {\n                        try\n                            IBSH(_bshAddr).handleFeeGathering(\n                                _gatherFee.fa,\n                                _gatherFee.svcs[i]\n                            )\n                        {} catch {\n                            //  If BSH contract throws a revert error, ignore and continue\n                        }\n                    }\n                }\n            } else if (_sm.serviceType.compareTo(\"Link\")) {\n                string memory _to = _sm.payload.decodePropagateMessage();\n                Types.Link memory link = IBMCManagement(bmcManagement).getLink(\n                    _prev\n                );\n                bool check;\n                if (link.isConnected) {\n                    for (uint256 i = 0; i < link.reachable.length; i++)\n                        if (_to.compareTo(link.reachable[i])) {\n                            check = true;\n                            break;\n                        }\n                    if (!check) {\n                        string[] memory _links = new string[](1);\n                        _links[0] = _to;\n                        IBMCManagement(bmcManagement).updateLinkReachable(\n                            _prev,\n                            _links\n                        );\n                    }\n                }\n            } else if (_sm.serviceType.compareTo(\"Unlink\")) {\n                string memory _to = _sm.payload.decodePropagateMessage();\n                Types.Link memory link = IBMCManagement(bmcManagement).getLink(\n                    _prev\n                );\n                if (link.isConnected) {\n                    for (uint256 i = 0; i < link.reachable.length; i++) {\n                        if (_to.compareTo(link.reachable[i]))\n                            IBMCManagement(bmcManagement).deleteLinkReachable(\n                                _prev,\n                                i\n                            );\n                    }\n                }\n            } else if (_sm.serviceType.compareTo(\"Init\")) {\n                string[] memory _links = _sm.payload.decodeInitMessage();\n                IBMCManagement(bmcManagement).updateLinkReachable(\n                    _prev,\n                    _links\n                );\n            } else if (_sm.serviceType.compareTo(\"Sack\")) {\n                // skip this case since it has been removed from internal services\n            } else revert(BMCRevertNotExistsInternalHandler);\n        } else {\n            _bshAddr = IBMCManagement(bmcManagement).getBshServiceByName(\n                _msg.svc\n            );\n            if (_bshAddr == address(0)) {\n                _sendError(_prev, _msg, BMC_ERR, BMCRevertNotExistsBSH);\n                return;\n            }\n\n            if (_msg.sn >= 0) {\n                (string memory _net, ) = _msg.src.splitBTPAddress();\n                try\n                    IBSH(_bshAddr).handleBTPMessage(\n                        _net,\n                        _msg.svc,\n                        uint256(_msg.sn),\n                        _msg.message\n                    )\n                {} catch Error(string memory reason) {\n                    _sendError(_prev, _msg, BSH_ERR, reason);\n                    // } catch Panic(uint256 errorCode) {\n                    //     _sendError(\n                    //         _prev,\n                    //         _msg,\n                    //         BSH_ERR,\n                    //         string(\n                    //             abi.encodePacked(\n                    //                 \"BMCPanicHandleBTPMessage:\",\n                    //                 errorCode\n                    //             )\n                    //         )\n                    //     );\n                } catch (bytes memory) {\n                    _sendError(\n                        _prev,\n                        _msg,\n                        BSH_ERR,\n                        BMCRevertUnknownHandleBTPMessage\n                    );\n                }\n            } else {\n                Types.Response memory _res = _msg.message.decodeResponse();\n                uint256 _errCode;\n                bytes memory _errMsg;\n                try\n                    IBSH(_bshAddr).handleBTPError(\n                        _msg.src,\n                        _msg.svc,\n                        uint256(_msg.sn * -1),\n                        _res.code,\n                        _res.message\n                    )\n                {} catch Error(string memory reason) {\n                    _errCode = BSH_ERR;\n                    _errMsg = bytes(reason);\n                    // } catch Panic(uint256 errorCode) {\n                    //     _errCode = UNKNOWN_ERR;\n                    //     _errMsg = abi.encodePacked(\n                    //         \"BMCPanicHandleBTPError:\",\n                    //         errorCode\n                    //     );\n                } catch (bytes memory) {\n                    _errCode = UNKNOWN_ERR;\n                    _errMsg = bytes(BMCRevertUnknownHandleBTPError);\n                }\n                if (_errMsg.length > 0) {\n                    emit ErrorOnBTPError(\n                        _msg.svc,\n                        _msg.sn * -1,\n                        _res.code,\n                        _res.message,\n                        _errCode,\n                        string(_errMsg)\n                    );\n                }\n            }\n        }\n    }\n\n    //  @dev Despite this function was set as external, it should be called internally\n    //  since Solidity does not allow using try_catch with internal function\n    //  this solution can solve the issue\n    function tryDecodeBTPMessage(bytes memory _rlp)\n        external\n        pure\n        returns (Types.BMCMessage memory)\n    {\n        return _rlp.decodeBMCMessage();\n    }\n\n    //  @dev Solidity does not allow using try_catch with internal function\n    //  Thus, work-around solution is the followings\n    //  If there is any error throwing, BMC contract can catch it, then reply back a RC_ERR Response\n    function tryDecodeBMCService(bytes calldata _msg)\n        external\n        pure\n        returns (Types.BMCService memory)\n    {\n        return _msg.decodeBMCService();\n    }\n\n    function tryDecodeGatherFeeMessage(bytes calldata _msg)\n        external\n        pure\n        returns (Types.GatherFeeMessage memory)\n    {\n        return _msg.decodeGatherFeeMessage();\n    }\n\n    function _sendMessage(string memory _to, bytes memory _serializedMsg)\n        internal\n    {\n        IBMCManagement(bmcManagement).updateLinkTxSeq(_to);\n        emit Message(\n            _to,\n            IBMCManagement(bmcManagement).getLinkTxSeq(_to),\n            _serializedMsg\n        );\n    }\n\n    function _sendError(\n        string calldata _prev,\n        Types.BMCMessage memory _message,\n        uint256 _errCode,\n        string memory _errMsg\n    ) internal {\n        if (_message.sn > 0) {\n            bytes memory _serializedMsg = Types\n                .BMCMessage(\n                    bmcBtpAddress,\n                    _message.src,\n                    _message.svc,\n                    _message.sn * -1,\n                    Types.Response(_errCode, _errMsg).encodeResponse()\n                )\n                .encodeBMCMessage();\n            _sendMessage(_prev, _serializedMsg);\n        }\n    }\n\n    /**\n       @notice Send the message to a specific network.\n       @dev Caller must be an registered BSH.\n       @param _to      Network Address of destination network\n       @param _svc     Name of the service\n       @param _sn      Serial number of the message, it should be positive\n       @param _msg     Serialized bytes of Service Message\n    */\n    function sendMessage(\n        string memory _to,\n        string memory _svc,\n        uint256 _sn,\n        bytes memory _msg\n    ) external override {\n        require(\n            msg.sender == bmcManagement ||\n                IBMCManagement(bmcManagement).getBshServiceByName(_svc) ==\n                msg.sender,\n            BMCRevertUnauthorized\n        );\n        require(_sn >= 0, BMCRevertInvalidSn);\n        //  In case BSH sends a REQUEST_COIN_TRANSFER,\n        //  but '_to' is a network which is not supported by BMC\n        //  revert() therein\n        (string memory _nextLink, string memory _dst) = IBMCManagement(\n            bmcManagement\n        ).resolveRoute(_to);\n        bytes memory _rlp = Types\n            .BMCMessage(bmcBtpAddress, _dst, _svc, int256(_sn), _msg)\n            .encodeBMCMessage();\n        _sendMessage(_nextLink, _rlp);\n    }\n\n    /*\n       @notice Get status of BMC.\n       @param _link        BTP Address of the connected BMC.\n       @return tx_seq       Next sequence number of the next sending message.\n       @return rx_seq       Next sequence number of the message to receive.\n       @return verifier     VerifierStatus Object contains status information of the BMV.\n    */\n    function getStatus(string calldata _link)\n        public\n        view\n        override\n        returns (Types.LinkStats memory _linkStats)\n    {\n        Types.Link memory link = IBMCManagement(bmcManagement).getLink(_link);\n        require(link.isConnected == true, BMCRevertNotExistsLink);\n        // Types.RelayStats[] memory _relays = IBMCManagement(bmcManagement)\n        //     .getRelayStatusByLink(_link);\n        // uint256 _rotateTerm = link.maxAggregation.getRotateTerm(\n        //     link.blockIntervalSrc.getScale(link.blockIntervalDst)\n        // );\n        return\n            Types.LinkStats(\n                link.rxSeq,\n                link.txSeq,\n                // Types.VerifierStats(0, 0, 0, \"\"), //dummy\n                // _relays,\n                // link.relayIdx,\n                // link.rotateHeight,\n                // _rotateTerm,\n                // link.delayLimit,\n                // link.maxAggregation,\n                // link.rxHeightSrc,\n                link.rxHeight,\n                // link.blockIntervalSrc,\n                // link.blockIntervalDst,\n                block.number\n            );\n    }\n}\n",
    "sourcePath": "/Users/viveksharmapoudel/my_work_bench/ibriz/btp-related/icon-bridge/solidity/bmc/contracts/BMCPeriphery.sol",
    "compiler": {
        "name": "solc",
        "version": "0.8.2+commit.661d1103.Emscripten.clang"
    },
    "schemaVersion": "3.4.8",
    "updatedAt": "2023-03-17T11:56:25.022Z",
    "devdoc": {
        "events": {
            "Message(string,uint256,bytes)": {
                "params": {
                    "_msg": "message from BSH",
                    "_next": "next BMC's BTP address",
                    "_seq": "a sequence number to keep track of BTP messages"
                }
            }
        },
        "kind": "dev",
        "methods": {
            "handleRelayMessage(string,bytes)": {
                "details": "Caller must be a registered relayer.     ",
                "params": {
                    "_msg": "base64 encoded string of serialized bytes of Relay Message refer RelayMessage structure",
                    "_prev": "BTP Address of the BMC generates the message"
                }
            },
            "sendMessage(string,string,uint256,bytes)": {
                "details": "Caller must be an registered BSH.",
                "params": {
                    "_msg": "Serialized bytes of Service Message",
                    "_sn": "Serial number of the message, it should be positive",
                    "_svc": "Name of the service",
                    "_to": "Network Address of destination network"
                }
            }
        },
        "version": 1
    },
    "userdoc": {
        "kind": "user",
        "methods": {
            "getBmcBtpAddress()": {
                "notice": "Get BMC BTP address"
            },
            "handleRelayMessage(string,bytes)": {
                "notice": "Verify and decode RelayMessage, and dispatch BTP Messages to registered BSHs"
            },
            "sendMessage(string,string,uint256,bytes)": {
                "notice": "Send the message to a specific network."
            }
        },
        "version": 1
    }
}